{
  "contractName": "Addition",
  "abi": [
    {
      "constant": true,
      "inputs": [],
      "name": "sum",
      "outputs": [
        {
          "name": "",
          "type": "int256"
        }
      ],
      "payable": false,
      "stateMutability": "view",
      "type": "function"
    },
    {
      "constant": false,
      "inputs": [
        {
          "name": "x",
          "type": "int256"
        },
        {
          "name": "y",
          "type": "int256"
        }
      ],
      "name": "add",
      "outputs": [],
      "payable": false,
      "stateMutability": "nonpayable",
      "type": "function"
    }
  ],
  "bytecode": "0x60806040526000805534801561001457600080fd5b5060f6806100236000396000f3fe6080604052600436106049576000357c0100000000000000000000000000000000000000000000000000000000900463ffffffff168063853255cc14604e578063a5f3c23b146076575b600080fd5b348015605957600080fd5b50606060b7565b6040518082815260200191505060405180910390f35b348015608157600080fd5b5060b560048036036040811015609657600080fd5b81019080803590602001909291908035906020019092919050505060bd565b005b60005481565b808201600081905550505056fea165627a7a72305820969ab0c4c7db856e590702239e306c1a0001df80a84084076fbb71e0ff78bc880029",
  "source": "pragma solidity >=0.4.21 <0.6.0;\n\ncontract Addition {\n  int public sum = 0;\n  \n  function add (int x, int y) public {\n    sum = x + y;\n  }\n}",
  "sourcePath": "/Users/arifrahman/Code/Personal/truffle-test-suite-tutorial/contracts/Users.sol",
  "compiler": {
    "name": "solc",
    "version": "0.5.0+commit.1d4f565a.Emscripten.clang"
  },
  "schemaVersion": "3.0.5",
  "updatedAt": "2019-03-28T15:29:55.299Z",
  "devdoc": {
    "methods": {}
  },
  "userdoc": {
    "methods": {}
  }
}